:0400000045EF04F0D4
:08000800046ED8CF05F0E0CF33
:1000100006F00001E9CF0CF0EACF07F0E1CF08F0DD
:10002000E2CF09F0D9CF0AF0DACF0BF0F3CF12F01C
:10003000F4CF13F0FACF14F000C00EF001C00FF0AF
:1000400002C010F003C011F0F2AA2AEF00F0F2B4DF
:1000500060EF00F00EC000F00FC001F010C002F021
:1000600011C003F00CC0E9FF07C0EAFF078E08C00B
:10007000E1FF09C0E2FF0AC0D9FF0BC0DAFF12C0DE
:10008000F3FF13C0F4FF14C0FAFF045006C0E0FFF2
:1000900005C0D8FF1000F2CF0DF0F29EF76AB00F46
:1000A000F66E000EF7220900F5500DBEF28E12001A
:1000B0003132334134353642373839432A302344DC
:1000C0003250335C2BE2332A16A813D03550030884
:1000D0000EE3036A3550220FE96E000E0320EA6E2C
:1000E000EFCF47F0956A47C08CFF352A01D0356ABB
:1000F00014D016B812D0355003080EE3036A3550F9
:100100002A0FE96E000E0320EA6EEFCF47F0956AE2
:1001100047C08CFF352A01D0356A01D0336AF2948A
:100120002AEF00F04465736C69676F75206D6F741A
:100130006F7220737465700A00004D6F746F722DBA
:10014000535445502056454C3A004D6F746F722DF4
:10015000444320202056454C3A00496E696369614A
:100160006C697A616E646F0A00005465636C61208B
:100170005072657373696F6E6164613A00004D6F10
:1001800076696D656E746F20616E74692D686F722B
:100190006172696F00004465736C6967616E646FBA
:1001A000206D6F746F7220737465700A00004C6963
:1001B00067616E646F206D6F746F72207374657009
:1001C0000A004D6F76696D656E746F20686F72E11D
:1001D00072696F0056656C6F636964616465207352
:1001E000746570204D696E696D6120616C63616E2C
:1001F000636164610A0044696D696E75696E646F5C
:1002000020737465702076656C6F636964616465E2
:100210000A0056656C6F6369646164652073746578
:1002200070204D6178696D6120616C63616E6361FE
:1002300064610A0041756D656E74616E646F207350
:100240007465702076656C6F6369646164650A002B
:1002500056656C6F636964616465206D6178696D72
:100260006120616E74692D686F72617269612061CD
:100270006C63616E636164610A0044696D696E75E7
:10028000696E646F2076656C6F6369646164650A8A
:1002900000004465736C6967616E646F206D6F74F4
:1002A0006F720A004C6967616E646F206D6F746FC6
:1002B000720A000056656C6F636964616465206D45
:1002C0006178696D6120686F726172696120616C2B
:1002D00063616E636164610A000041756D656E74EF
:1002E000616E646F2076656C6F6369646164650A32
:1002F00000004552524F210A0000C69E9E9646C0FD
:10030000C9FF020EC6BE05D09EA6FED7000EC5BC14
:10031000010E016E1200C580C5B0FED717C046F0B1
:10032000ECDF44501810456E466EE7DFC584C5B457
:10033000FED71200EA6A3A0EE96EEF500DE0060EA3
:10034000016E006A002EFED7012EFBD77B0E006ED9
:10035000002EFED7EF2EF3D71200000E16B0010EBE
:10036000421242C044F0D7DF42500409436E446E4B
:10037000D2DF00D000D000004250FB0B436E446E31
:10038000CADF520E006E002EFED700D00000120011
:1003900016903C50F00B3D6E426EDFDF3C38006E35
:1003A000F00E00160050F00B3D6E426ED6DF1200CC
:1003B00039C017F0446AAFDF280E3A6EBBDF030E78
:1003C0003C6EE6DF050E3A6EB5DF030E3C6EE0DFF5
:1003D000050E3A6EAFDF030E3C6EDADF050E3A6EA5
:1003E000A9DF020E3C6ED4DF050E3A6EA3DF280EA5
:1003F0003C6ECEDF320E3A6E9DDF0C0E3C6EC8DFD7
:10040000320E3A6E97DF010E3C6EC2DF320E3A6E4C
:1004100091DF060E3C6EBCDF320E3A6E8BDF91EF41
:1004200004F03A50020A05E0010A0AE0070A0FE068
:1004300015D0C00E3924FF0F3B6E3C6EA9DF14D0DF
:10044000940E3924FF0F3B6E3C6EA2DF0DD0D40E0C
:100450003924FF0F3B6E3C6E9BDF06D0800E3924A3
:10046000FF0F3B6E3C6E94DF120016804050F00B85
:10047000416E426E72DF4038006EF00E0016005082
:10048000F00B416E426E69DF12000900F5520CE07C
:10049000F6CF39F0F7CF3AF0F5CF40F0E6DF39C0CC
:1004A000F6FF3AC0F7FFF1D712004150016A405CF5
:1004B00003E240C000F00CD0006A080E426E4036E5
:1004C00000364150005CD8B0006E0136422EF7D79E
:1004D0001200200E3BA8300E3C6E3AC000F03AAE3F
:1004E00008D0001E002A00C03AF02D0E3C6E3B8E54
:1004F0003B8001503AC040F0640E416ED6DF00C030
:100500003AF0300E01243D6E3AC040F00A0E416EC2
:10051000CCDF300E00243F6E300E01243E6E3CC016
:1005200000F0300E3D5C04E03B823BBE3B8412D0C9
:100530003CC03DF0200E3C6E300E3E5C04E03B8043
:100540003BBE3B8207D0D8A43B8004E13DC03EF0D7
:10055000200E3D6E3BB405D03BB206D03BB007D079
:1005600009D03CC040F081DF3DC040F07EDF3EC09E
:1005700040F07BDF3FC040F078DF120016A409D0C6
:100580000B0E396E010E3A6E4CDF310E406E6DDF90
:1005900008D00B0E396E010E3A6E43DF300E406EFE
:1005A00064DF16A609D00A0E396E020E3A6E39DFE4
:1005B000310E406E5ADF08D00A0E396E020E3A6EC6
:1005C00030DF300E406E51DF100E396E010E3A6E84
:1005D00028DF36C03AF0180E3B6E7BDF100E396E06
:1005E000020E3A6E1EDF010E345C396E3A6E180E42
:1005F0003B6E6FDF1200F19E93908A80C1EF04F092
:100600000900F5520DE0F6CF39F0F7CF3AF0F5508A
:100610009EA8FED7AD6E39C0F6FF3AC0F7FFF0D7FF
:100620001200938E000E81BE010E3B6E938C000E65
:1006300081BC010E3B169388000E81B8010E3B165B
:10064000938A000E81BA010E3B1404E0000E016E85
:1006500003D002D0010E016E1200396A192A195016
:100660002108D8B067D01B50FC0F26E2040F9EEF84
:1006700003F093968A9693948A8493928A829390B5
:100680008A801AD093968A8693948A9493928A82C7
:1006900093908A8011D093968A8693948A849392B9
:1006A0008A9293908A8008D093968A8693948A84BB
:1006B00093928A8293908A9016A208D0B2DF015258
:1006C00004E116921AC039F01A6A33D0AADF015237
:1006D0002BE0938E81BE02D03A6A11D0938C81BCFC
:1006E00003D0010E3A6E0BD0938881B803D0020E6E
:1006F0003A6E05D0938A81BA02D0030E3A6E3A5010
:10070000040DF3503C6A3B6E036A1B503B24016EA0
:100710003C5003220150F2CF3BF0F29EBCDC3BBECA
:10072000F28E1A6E168205D01B2A1B50040801E1B6
:100730001B6A196A39C001F0DBEF04F0F2CF0DF04B
:10074000F29EE824F76AF736610FF66E070EF7227D
:100750000A00F550FA6E0800F5500DBEF28EF96EE3
:10076000720684069606A8069EA8FED7AD6E1200F5
:1007700016B409D0956A8C6A240EF66E010EF76ED7
:100780003FDFFCDE1AD0010E365CFB0F15E2050FD1
:10079000DEEF03F0010E326E0FD0030E326E0CD07E
:1007A000050E326E09D0190E326E06D0320E326E40
:1007B000010E376E01D0E2DEE1DE1200F2CF0DF065
:1007C000F29EE824F76AF736E10FF66E070EF7227D
:1007D0000A00F550FA6E0800F5500DBEF28EF96E63
:1007E00094079A07A007A607AC0716B604D0BE6AFE
:1007F000BB6AC4DE2DD0010E345CF60F28E20A0F6E
:1008000029EF04F0BE68BB6A22D0F00EBE6EBB6A50
:100810001ED0E60EBE6EBB6A1AD0DC0EBE6EBB6A80
:1008200016D0D20EBE6EBB6A12D0BE6AD20EBB6E9E
:100830000ED0BE6ADC0EBB6E0AD0BE6AE60EBB6E80
:1008400006D0BE6AF00EBB6E02D0BE6ABB6896DEF2
:100850001200F2CF0DF0F29EE824F76AF736770F18
:10086000F66E080EF7220A00F550FA6E0800F550F1
:100870000DBEF28EF96E04080A0812081A08220842
:100880002A0832083A0842084A08F86AD09E078EB9
:1008900094869488310EC86E280EC66EC78EC79C8B
:1008A000810EAF6EA60EAC6E900EAB6E080E186E7B
:1008B000010E326E336A050E346E356A366E16944A
:1008C00016961688C180C182C184C1961692196A93
:1008D00016921A6A1B6A1C6A1D6A226A236A246AB3
:1008E000256A266A276A286A296A2A6A2B6A2C6A74
:1008F0002D6A2E6A2F6A306A316A300E386E040E05
:100900002A6E080E2B6E020E2C6E010E2D6E226EBC
:10091000020E236E080E246E040E256E4E0E396EE6
:1009200047D5C180C182C184C196C2909698800E7D
:10093000D56EF60ED76E3C0ED66E000E0609CA6E48
:10094000FF0ECB6E94948B940C0EBD6E94928B9292
:10095000BA6E320E3A6EEEDC010E396E3A6E61DD21
:100960003A0EF66E010EF76E90DD010E396E020E34
:100970003A6E57DD4A0EF66E010EF76E86DDFEDD2D
:100980003AD65A0EF66E010EF76E3ADE080E396E42
:10099000FA0E3A6ECFDC392EFBD7BE6ABB6A959051
:1009A0008C9095928C9295948C9495968C96C00E82
:1009B000F212F29A52D601C038F03852D8B49DD013
:1009C0006A0EF66E010EF76E1BDE3850CDDE0A0E93
:1009D000CBDE640E3A6EAEDC3850310A10E0030A0A
:1009E00015E0010A29E0070A2EE0020A3CE0010AAC
:1009F0004BE00F0A59E0010AD8B469D079D01698B3
:100A00007E0EF66E010EF76EFBDD77D016A408D0D1
:100A10001694F29A960EF66E010EF76EF1DD0AD07C
:100A200016B408D01684356AF28AAE0EF66E010E40
:100A3000F76EE6DD9DDE61D01688C20EF66E010E01
:100A4000F76EDEDD5AD0362C06D0D40EF66E010ECF
:100A5000F76ED6DD52D0F60EF66E010EF76ED0DDD3
:100A6000360686DE4AD03650050806E1120EF66ECE
:100A7000020EF76EC5DD41D0340EF66E020EF76E33
:100A8000BFDD362A75DE39D0342C06D0500EF66E16
:100A9000020EF76EB5DD31D07A0EF66E020EF76EED
:100AA000AFDD3406A2DE29D016A607D01696920E28
:100AB000F66E020EF76EA4DD08D016B606D01686C6
:100AC000A40EF66E020EF76E9BDD8FDE16D034504C
:100AD0000A0806E1B40EF66E020EF76E91DD0DD037
:100AE000DA0EF66E020EF76E8BDD342A7EDE05D04E
:0E0AF000F20EF66E020EF76E83DD5CD7030089
:020000040030CA
:0E00000000220C0E000181000FC00FE00F4027
:00000001FF
;PIC18F452
;CRC=2DD5  CREATED="03-dez-19 11:01"
